:020000040800F2
:1000000068060020ED010008450300083D030008D4
:1000100041030008A70200081505000800000000C1
:100020000000000000000000000000008103000844
:10003000AB020008000000005D030008A5040008F2
:10004000070200080702000807020008070200086C
:10005000070200080702000807020008070200085C
:10006000070200080702000807020008070200084C
:10007000070200080702000807020008070200083C
:10008000070200080702000807020008070200082C
:10009000070200080702000807020008070200081C
:1000A000070200080702000807020008070200080C
:1000B00007020008070200080702000807020008FC
:1000C00007020008070200080702000807020008EC
:1000D00007020008070200080702000807020008DC
:1000E00007020008070200080702000800000000DD
:1000F0000000000000000000000000000000000000
:1001000000000000000000000702000807020008CD
:10011000070200080702000807020008070200089B
:10012000070200080702000807020008070200088B
:10013000070200080702000807020008070200087B
:10014000070200080702000807020008070200086B
:1001500000F002F800F03AF80AA090E8000C82449F
:100160008344AAF10107DA4501D100F02FF8AFF27C
:10017000090EBAE80F0013F0010F18BFFB1A43F085
:10018000010318474C0400006C040000103A24BF1F
:1001900078C878C1FAD8520724BF30C830C144BFEC
:1001A00004680C607047000000230024002500262E
:1001B000103A28BF78C1FBD8520728BF30C148BFCA
:1001C0000B6070471FB51FBD10B510BD00F031F8B2
:1001D0001146FFF7F7FF00F0E3F900F04FF803B422
:1001E000FFF7F2FF03BC00F057F800000948804712
:1001F00009480047FEE7FEE7FEE7FEE7FEE7FEE709
:10020000FEE7FEE7FEE7FEE704480549054A064B20
:1002100070470000A9040008510100086800002090
:1002200068060020680200206802002070477047BE
:100230007047754600F02CF8AE46050069465346F7
:1002400020F00700854618B020B5FFF7DDFFBDE8B8
:1002500020404FF000064FF000074FF000084FF02D
:10026000000B21F00701AC46ACE8C009ACE8C009BE
:10027000ACE8C009ACE8C0098D46704710B504462B
:10028000AFF300802046BDE81040FFF7A8BF000094
:10029000004870470400002001491820ABBEFEE76B
:1002A00026000200704700BFFEE77047F0B50A461F
:1002B000002300240021002500F00046B6F1004F85
:1002C00002D11D4EF16901E01B4E7168C0F3034578
:1002D00083B200F44016B6F5401F08D121F07061DA
:1002E000154E766826F07066134F7E6012E000F4BB
:1002F0008016B6F5801F06D1032606FA05F4A14341
:1003000041F0706106E0460D360103FA06F6B1438E
:1003100041F0706122B1460D360103FA06F6314311
:1003200000F00046B6F1004F02D1034EF16101E04A
:10033000014E7160F0BD00000000014000BFFEE70B
:1003400000BFFEE77047000002490143024A116006
:10035000704700000000FA050CED00E07047000057
:1003600029B1064A92690243044B9A6104E0034AA8
:1003700092698243014B9A6170470000001002406D
:10038000704710B500F002F810BD00000CB5002059
:10039000019000903F48006840F480303D4908607B
:1003A00000BF3C48006800F4003000900198401CF9
:1003B0000190009818B90198B0F5A06FF1D13548B7
:1003C000006800F4003010B10120009001E000202E
:1003D0000090009801285CD12F48006840F0100080
:1003E0002D4908600846006820F0030008600846B0
:1003F000006840F0020008602648406825494860CF
:100400000846406848600846406840F4806048609C
:100410000846C06A214908401E49C8620846C06AA9
:100420001F4908431B49C8620846006840F08060C5
:10043000086000BF1748006800F000600028F9D08D
:100440001448406820F47C1012494860084640680F
:1004500040F4E81048600846006840F0807008608A
:1004600000BF0C48006800F000700028F9D009486F
:10047000406820F00300074948600846406840F0A3
:100480000200486000BF0348406800F00C000828E4
:10049000F9D10CBD001002400020024000F0FEFF28
:1004A000440601007047000010B51648006840F08F
:1004B0000100144908600846406813490840114982
:1004C000486008460068114908400E49086008461F
:1004D000006820F4802008600846406820F4FE0090
:1004E00048600846006820F0A05008604FF47F0084
:1004F00088600020C862FFF744FF4FF000600449A5
:10050000086010BD001002400000FFF0FFFFF6FE83
:1005100008ED00E000BFFEE74FF0E021096941F07F
:1005200004014FF0E0221161054908601146096994
:1005300041F0010111616FF070415161704700009D
:100540000000002010B504464FF47A7104FB01F05E
:1005500000F002F810BD000070B5034600224FF015
:10056000E02675690D4E366803FB06F44FF0E02671
:10057000B16910E04FF0E026B06988420BD08842A4
:1005800002D20E1A324402E02E1A0E4432440146C0
:10059000A24200D300E0EDE700BF70BD00000020E4
:1005A0004FF44070FFF7D0FE4820FFF7B5FF012160
:1005B0000846FFF7D5FE01210448FFF777FE03E068
:1005C0004FF47A70FFF7BEFFFAE700000002300038
:1005D000F005000800000020040000008C01000865
:1005E000F40500080400002064060000A8010008CB
:0405F0000000000007
:04000005080001519D
:00000001FF
