:020000040800F2
:10000000B8060020ED010008D90D0008D50D000844
:10001000D70D0008E3030008090F000800000000E6
:10002000000000000000000000000000DD0D0008DE
:10003000E503000800000000DB0D0008DF0D0008EC
:10004000070200080702000807020008070200086C
:10005000070200080702000807020008070200085C
:10006000070200080702000807020008070200084C
:10007000070200080702000807020008070200083C
:10008000070200080702000807020008070200082C
:10009000070200080702000807020008070200081C
:1000A000070200080702000807020008070200080C
:1000B00007020008070200080702000807020008FC
:1000C00007020008070200080702000807020008EC
:1000D00007020008070200080702000807020008DC
:1000E00007020008070200080702000800000000DD
:1000F0000000000000000000000000000000000000
:1001000000000000000000000702000807020008CD
:10011000070200080702000807020008070200089B
:10012000070200080702000807020008070200088B
:10013000070200080000000000000000070200089D
:10014000070200080702000807020008070200086B
:1001500000F002F800F03AF80AA090E8000C82449F
:100160008344AAF10107DA4501D100F02FF8AFF27C
:10017000090EBAE80F0013F0010F18BFFB1A43F085
:1001800001031847500E0000700E0000103A24BF03
:1001900078C878C1FAD8520724BF30C830C144BFEC
:1001A00004680C607047000000230024002500262E
:1001B000103A28BF78C1FBD8520728BF30C148BFCA
:1001C0000B6070471FB51FBD10B510BD00F0CFF814
:1001D0001146FFF7F7FF00F0A9FE00F0EDF803B4B9
:1001E000FFF7F2FF03BC00F0F5F800000948804774
:1001F00009480047FEE7FEE7FEE7FEE7FEE7FEE709
:10020000FEE7FEE7FEE7FEE704480549054A064B20
:10021000704700004D0E000851010008B800002092
:10022000B8060020B8020020B802002053EA020CF1
:1002300000F069802DE9F04B4FF00006002B1FBF46
:10024000B3FA83F503FA05F424FA05F65E4012BF0B
:100250001643B2FA82F502FA05F4C5F120051EBF75
:1002600022FA05FC44EA0C04203556EA044C4FEA15
:10027000144418BF641C4FF000084FF0000990426E
:1002800071EB030C39D3002919BFB1FA81F701FAD8
:1002900007F6B0FA80F700FA07F6C7F120071EBF8D
:1002A00020FA07FC46EA0C062037B6FBF4FCA7EB65
:1002B0000507103F07F01F0BCBF120060CFA0BFBD4
:1002C0002CFA06F644BFB3460026202FA4BF5E4694
:1002D0004FF0000B5BEA060C08BF4FF0010B19EB67
:1002E0000B09ABFB027C48EB0608C01B06FB02CCEB
:1002F0000BFB03CC71EB0C01C1E70B4602464146F8
:100300004846BDE8F08B13B54FF000004FF00001F8
:10031000AFF30080BDE81C4070474FF0000200B50D
:10032000134694469646203922BFA0E80C50A0E818
:100330000C50B1F12001BFF4F7AF090728BFA0E8C6
:100340000C5048BF0CC05DF804EB890028BF40F892
:10035000042B08BF704748BF20F8022B11F0804FD4
:1003600018BF00F8012B70477047704770477546FB
:1003700000F02CF8AE4605006946534620F0070011
:10038000854618B020B5FFF73FFFBDE820404FF08D
:1003900000064FF000074FF000084FF0000B21F06F
:1003A0000701AC46ACE8C009ACE8C009ACE8C0093C
:1003B000ACE8C0098D46704710B50446AFF3008025
:1003C0002046BDE81040FFF70ABF00000048704714
:1003D0005800002001491820ABBEFEE726000200AD
:1003E0007047FEE7704700002DE9F84FDFF8B8913D
:1003F0000024A9F1040B23460F2709F1040AABF1ED
:10040000040EC9E00125A5402A40AA427DD1674ECD
:10041000D1F804C0ACEB0608B44532D014DCBCF112
:10042000030F3AD009DCBCF1000F2AD0BCF1010F58
:100430001CD0BCF1020F31D11DE0BCF1110F17D05F
:10044000BCF1120F2AD119E0B8F5881F19D006DCCB
:10045000B8F5803F15D0B8F5801F1FD111E0B8F571
:10046000001F0ED0B8F5041F18D10AE0CB6815E0C4
:10047000CB681B1D12E0CB6808330FE0CB680C3350
:100480000CE08B682BB1012B4FF0080303D04561C2
:1004900004E0042302E0056100E00023FF2A01D804
:1004A000064601E000F104064FEA840501D9A5F1F2
:1004B0002005D6F8008007FA05FC28EA0C0803FAA4
:1004C00005F548EA0508C6F800804D68ED0062D5DC
:1004D000374DAE6946F00106AE61AD6924F0030602
:1004E00005F001050095334D06EB050CDCF80850CE
:1004F000A607360F07FA06F825EA0805DFF8B880E0
:10050000404503D14FF0000817E044E0DFF8AC802D
:10051000404502D14FF001080FE0DFF8A4804045CC
:1005200002D14FF0020808E0DFF89880404502D180
:100530004FF0030801E04FF0040808FA06F848EA13
:100540000508CCF808804D68D9F80060ED024D46EA
:1005500001D5164300E096432E604D68DAF800603E
:10056000AD02554601D5164300E096432E604D6816
:10057000DBF80060AD035D4601D5164300E096430D
:100580002E604D68DEF80060ED03754601D5164318
:1005900000E096432E60641C0D682A46E5407FF417
:1005A00031AFBDE8F88F00000804014000001110D1
:1005B000001002400000014000080140000C014012
:1005C000001001400014014001488068704700009D
:1005D0000000002002488168027811448160704761
:1005E00000000020074810B5016841F010010160CB
:1005F000032000F067F80F2000F006F800F024F860
:10060000002010BD0020024070B50D4D04464FF48F
:100610007A712878B1FBF0F00A490968B1FBF0F073
:1006200000F050FB48B9102C07D200222146501E82
:1006300000F028F800206C6070BD012070BD000043
:10064000000000200C0000200C4808B5816941F032
:1006500001018161816901F001010091C16941F0ED
:100660008051C161C06900F0805000900448416829
:1006700021F0E06141F00071416008BD00100240CE
:1006800000000140F0B40E4B1B680C46C3F302237C
:10069000C3F10705042D00D90425191D072901D22E
:1006A000002300E0DB1E012606FA05F1491E214069
:1006B00099409E40761E16403143F0BC00F025BCA8
:1006C0000CED00E0064900F0070208684FF6FF0352
:1006D000184040EA0220034A1043086070470000B7
:1006E0000CED00E00000FA052DE9F0470F4605008B
:1006F00061D0434E306800F00700B84209D230683C
:1007000020F0070038433060306800F00700B8423E
:1007100051D128683B4C810712D5400703D560684A
:1007200040F4E06060602878000703D5606840F41A
:10073000605060606068A96820F0F0000843606065
:100740002878C00728D06868012810D021680228BE
:1007500010D0890700292EDA616821F003010143D6
:100760006160FFF731FF804641F288390DE0216872
:100770008903EFE78901EDE7FFF726FFA0EB08010A
:10078000494502D90320BDE8F0876068696800F038
:100790000C00B0EB810FEFD1306800F00700B842D9
:1007A0000BD9306820F0070038433060306800F023
:1007B0000700B84201D00120E5E72878400705D5B9
:1007C0006068E96820F4E06008436060287800070A
:1007D00006D56068296920F4605040EAC100606075
:1007E00000F038F86168084AC1F30311515CC84051
:1007F0000649086006480068FFF706FF0020C2E7C8
:100800000020024000100240BA0F00080C00002037
:10081000040000200448054900684968044AC1F3FF
:100820000221515CC84070470C00002000100240BB
:10083000CA0F00080448054900684968044AC1F322
:10084000C221515CC84070470C00002000100240DB
:10085000CA0F00082DE9F0411D494A681D4802F001
:100860000C03042B2ED0082B2CD11B48C2F383433E
:10087000C45CD00328D5C86A174A00F00F000E32B6
:10088000105CCA6AD20316D5CA6AC96AC2F30312D7
:10089000C1F30321521C891CA2FB0023A1FB0415F8
:1008A0000C4F0026A1FB070C05FB07C501FB0651F9
:1008B000FFF7BCFC03E007496143B1FBF0F00D2CEE
:1008C00000D14008BDE8F08104486043FAE7000029
:1008D0000010024000127A009C0F000800093D0041
:1008E0002DE9F84F040070D02078F14DC00749D0B1
:1008F0006868C0F38100012807D06868C0F38100F0
:10090000022809D16868C00306D52868800339D554
:10091000A0680028E7D035E0A068B0F5803F0BD094
:1009200010B1B0F5A02F11D0286820F480302860D5
:10093000286820F4802002E0286840F48030286095
:10094000A06890B1FFF740FE06460AE0286840F430
:1009500080202860F0E700BFFFF736FE801B642888
:1009600076D828688003F7D50CE0FFF72DFE064601
:1009700005E000BFFFF728FE801B6428F0D8286838
:100980008003F7D42078CB4E80074FF001094FF059
:1009900000073AD5686810F00C0F07D06868C0F3FC
:1009A0008100022809D16868C00306D4286880073E
:1009B00015D56069012808D111E06069B8B1C6F8A1
:1009C0000090FFF701FE804606E042E1FFF7FCFDE4
:1009D000A0EB08000228C3D828688007F6D528684D
:1009E000A16920F0F80040EAC10028600DE03760FE
:1009F000FFF7EAFD804605E0FFF7E6FDA0EB080003
:100A00000228ADD828688007F6D4207800072ED5B4
:100A1000A948E169E9B1C0F80090FFF7D5FD80462B
:100A200006E000BFFFF7D0FDA0EB0800022897D832
:100A3000686A8007F6D5A1484FF4FA510068B0FB08
:100A4000F1F0009000BF0098411E0091FAD20EE034
:100A5000B0E00760FFF7B8FD804605E0FFF7B4FDA2
:100A6000A0EB0800022889D8686A8007F6D42078AD
:100A7000400763D5E8694FF00008C00009D4E86971
:100A800040F08050E861E8694FF0010800F08050C4
:100A900000908B480168C90512D40168834641F46F
:100AA00080710160FFF790FD824605E0FFF78CFD45
:100AB000A0EB0A0064287DD8DBF80000C005F5D55E
:100AC000206901280AD008B1052813D0286A20F02F
:100AD00001002862286A20F0040002E0286A40F041
:100AE00001002862206941F2883B98B1FFF76CFD54
:100AF00082460BE0286A40F004002862EEE700BF5F
:100B0000FFF762FDA0EB0A01594553D8286A800718
:100B1000F6D50CE0FFF758FD824605E0FFF754FDDF
:100B2000A0EB0A01594545D8286A8007F6D4B8F1E8
:100B3000000F03D0E86920F08050E861E06AD0B38C
:100B40006968C90307D56968C1F38101022902D127
:100B5000E96AC9037DD4022808D0E86A20F480300D
:100B6000E862B766FFF730FD80463BE02868C000CA
:100B700005D5E86A616B00F0F000884269D1B7667C
:100B8000FFF722FD804605E0FFF71EFDA0EB080001
:100B9000642874D828680001F6D4E86A616B20F0F4
:100BA000F0000843E862E86A216B20F470600843B3
:100BB000E86201E063E018E0C6F86890FFF704FD22
:100BC000804605E0FFF700FDA0EB0800642856D83A
:100BD00028680001F6D508E0FFF7F6FCA0EB080056
:100BE00064284CD828680001F6D4206A90B369685C
:100BF000C1F38101022949D00228376603D0FFF7EB
:100C0000E3FC04463EE0FFF7DFFC074605E000BFDB
:100C1000FFF7DAFCC01B022831D828688001F7D41E
:100C2000606AB0F5803F09D1E86A61680843E8620C
:100C3000E86AE16820F00F000843E862D4E909019E
:100C40000843696821F4741108436860C6F860902D
:100C500001E028E029E0FFF7B7FC044605E000BF0B
:100C6000FFF7B2FC001B022809D828688001F7D5DD
:100C70001BE000BFFFF7A8FC001B022802D90320DD
:100C8000BDE8F88F28688001F4D40EE00128F7D081
:100C90006868626A00F48031914204D1A16A00F46C
:100CA0007010884201D00120EAE70020E8E7000048
:100CB0000010024000004242800442420C0000202A
:100CC0000070004010B5401EB0F1807F01D30120BC
:100CD00010BD4FF0E02460610F21601700F015F99E
:100CE0000020A06107202061002010BD70B5040025
:100CF00004D094F84100002510B106E0012070BD39
:100D000084F84050204600F023F8242084F8410065
:100D10002068C16821F40051C160204600F098F8B5
:100D20002068016921F4904101612068416921F046
:100D30002A0141612068C16841F40051C1606564C5
:100D4000202084F8410084F842006563002070BDD3
:100D500010B586B0002400940194029403940068B6
:100D6000184988422BD11848C16941F48011C161EA
:100D7000C16901F480110491816941F01001816120
:100D8000816901F010010491816941F020018161C4
:100D90008069694600F0200004904FF48050009074
:100DA00002200190032003900848FFF71DFB042058
:100DB000CDE90004694606480294FFF715FB06B02A
:100DC00010BD000000500040001002400010014023
:100DD00000140140FEE7FEE7FEE770477047FFF7AB
:100DE000F9BB000070B594B038216846FFF795FA5A
:100DF00014210EA8FFF791FA012500242804CDE95B
:100E000002040226CDE908600095059501944FF48F
:100E1000E010CDE90A046846FFF762FD08B172B63A
:100E2000FEE70F20CDE90E064FF48060CDE91040BB
:100E300002210EA81294FFF757FC08B172B6FEE724
:100E40000148056714B070BD0000424270470000C1
:100E500070B5044600680169E26821F4405111430D
:100E600001612169A0680843616908432168CA6873
:100E700041F20C639A430243CA6020684169A26947
:100E800021F44071114341611E492068884202D11A
:100E9000FFF7D0FC01E0FFF7BDFC00EBC00101EB68
:100EA0000012606864218000B2FBF0F3B3FBF1F341
:100EB0006FF018067343B2FBF0F5B2FBF0F605EBEA
:100EC0008305322303EB0515B5FBF1F5B6FBF1F60F
:100ED00005F0F00505EB0615B2FBF0F6B2FBF0F0FD
:100EE000B0FBF1F06FF01802504306EB800003EB0B
:100EF0000010B0FBF1F0216800F00F00284488607A
:100F000070BD000000380140FEE70907090E002807
:100F100004DB00F1E02080F80014704700F00F00BF
:100F200000F1E02080F8141D7047000008B5FFF7BD
:100F300059FBFFF757FF1648816941F02001816195
:100F4000816901F020010091816941F00401816112
:100F5000816901F004010091816941F01001816112
:100F600080690C4900F0100000900B480C220160D1
:100F70004FF4E131416000218160C160C0E9041299
:100F80008161C161FFF7B2FE08B172B6FEE7FEE70C
:100F90000010024000500040100000200000040536
:100FA0000607080900000000000D01020304050601
:100FB0000708090A0B0C0D0E0F10000000000000BE
:100FC00000000102030406070809000000000102F6
:100FD00003040000F40F00080000002010000000CF
:100FE0008C0100080410000810000020A806000072
:100FF000A80100080100000010000000000000002F
:0410000000127A0060
:04000005080001519D
:00000001FF
